:1000000002A857E4FDFC7F0402C05E02B4D412B51E
:100010009EEF650B7003EE650A60078E0A8F0B1268
:100020009C562202C8424C434420496E69742E2ECD
:100030002E09094F4B0A00000000000000000000DC
:1000400000000000000000000000000000000000B0
:10005000FF00800080008000800080008000800021
:10006000FF0000000000000000000000000000FF92
:10007000800080008000800080008000800080FF81
:10008000800000000000000000000000000000FFF1
:10009000FF00000000000000800080008000800061
:1000A000800080008000800000038007C00FE00F08
:1000B000E007C003800000FFFFFC7FF83FF01FF067
:1000C0001FF83FFC7FFFFF00000000000000000061
:1000D0000000000000000000000000000000000020
:1000E0000000000000000000000038004421C42689
:1000F00044383820003E00000000401C40224023CD
:10010000FC22401C400040000000000000000000F5
:10011000000000000000000000000C001C3FF8245C
:1001200000243048707FE0000011100FE0101070C4
:100130001C10100FE011100080008000800080FF74
:10014000FF0080008000800000008001C003E00705
:10015000F00FF81FFC3FFE00000000100820047F95
:10016000FE200410080000000000003FE600000030
:10017000003FE60000000000000E0011002080207B
:10018000803FFC20003FFC0080008000800080FF5A
:10019000800080008000800080008000800080005F
:1001A000FF0080008000800080008000800080FFD1
:1001B000FF00000000000000000000100020007F91
:1001C000FE2000100000000000000000000000FF02
:1001D000FF00800080008000000080008000800020
:1001E0008002A001C000800000008001C002A000C9
:1001F00080008000800080000000000000000000FF
:1002000000000000000000000000000000000000EE
:1002100000000000000000000000000000000000DE
:1002200000000000000000000000000000000000CE
:1002300000000000000000000000000000000000BE
:10024000000000000000000000000000001FCC00C3
:100250000C000000000000000008003000600008F2
:1002600000300060000000022003FC1E200220037A
:10027000FC1E200220000000000E1811043FFF1099
:10028000840C78000000000F0010840F3800C007B5
:100290007818840078000000780F8410C411240EB0
:1002A0009800E40084000808006800700000000066
:1002B0000000000000000000000000000007E0183F
:1002C0001820044002000000004002200418180713
:1002D000E00000000000000240024001800FF00139
:1002E000800240024000000080008000800FF80083
:1002F000800080008000000001000D000E00000062
:10030000000000000000000000008000800080006D
:10031000800080008000800000000C000C000000C5
:10032000000000000000000000000600180060014E
:1003300080060018002000000007F00808100410D4
:1003400004080807F000000000080408041FFC006F
:100350000400040000000000000E0C101410241013
:100360004411840E0C000000000C1810041104113C
:100370000412880C700000000000E0032004240830
:10038000241FFC0024000000001F98108411041199
:1003900004108810700000000007F0088811041194
:1003A0000418880070000000001C00100010FC13EE
:1003B000001C001000000000000E381144108410D2
:1003C0008411440E38000000000700088C1044100F
:1003D00044088807F00000000000000000030C0340
:1003E0000C000000000000000000000001010600F9
:1003F0000000000000000000000080014002200416
:10040000100808100400000220022002200220022E
:10041000200220022000000000100408080410023E
:100420002001400080000000000E001200100C109F
:100430006C10800F00000003E00C1813E414241764
:10044000C4082807D000000004003C03C41C400777
:100450004000E4001C000410041FFC1104110411EE
:10046000040E880070000003E00C18100410041043
:100470000410081C10000010041FFC1004100410CD
:1004800004080807F0000010041FFC1104110417F1
:10049000C410040818000010041FFC1104110017F8
:1004A000C010000800000003E00C18100410041035
:1004B000441C780040000010041FFC1084008000E1
:1004C0008010841FFC10040000100410041FFC1096
:1004D0000410040000000000030001100110011FBF
:1004E000FE10001000000010041FFC110403801413
:1004F00064181C1004000010041FFC100400040009
:10050000040004000C000010041FFC1F0000FC1F6E
:10051000001FFC1004000010041FFC0C040300006A
:10052000E010181FFC100007F00808100410041059
:1005300004080807F0000010041FFC10841080104D
:100540008010800F00000007F008181024102410FD
:100550001C080A07F2000010041FFC11041100110E
:10056000C011300E0C000400000E1C110410841089
:100570008410441C3800001800100010041FFC10E8
:100580000410001800000010001FF8100400040000
:100590000410041FF8100010001E0011E0001C00E1
:1005A0007013801C0010001FC0103C00E01F0000F2
:1005B000E0103C1FC000001004180C163401C001EC
:1005C000C01634180C100410001C00130400FC1397
:1005D000041C00100000000804101C106410841398
:1005E000041C04101800000000000000007FFE4002
:1005F00002400240020000000030000C00038000B6
:1006000060001C0003000000004002400240027F26
:10061000FE0000000000000000000020004000403C
:100620000040002000000000010001000100010066
:100630000100010001000100004000400020000016
:1006400000000000000000000000980124014401A7
:1006500044014400FC000410001FFC008801040158
:100660000400880070000000000070008801040190
:1006700004010400880000000000700088010401EB
:100680000411081FFC0004000000F80144014401AB
:1006900044014400C800000000010401040FFC11E3
:1006A00004110411001800000000D60129012901DD
:1006B0002901C90106000010041FFC00840100018B
:1006C00000010400FC000400000104190419FC00EE
:1006D00004000400000000000000030001010119F3
:1006E0000119FE0000000010041FFC00240040015E
:1006F000B4010C010400000000100410041FFC00F1
:1007000004000400000000010401FC0104010001D8
:10071000FC0104010000FC010401FC008401000153
:1007200000010400FC0004000000F80104010401C1
:1007300004010400F80000010101FF00850104012B
:1007400004008800700000000000700088010401AF
:1007500004010501FF00010104010401FC00840102
:1007600004010001800000000000CC0124012401EC
:100770002401240198000000000100010007F80195
:1007800004010400000000010001F800040004005E
:1007900004010801FC0004010001800170000C004C
:1007A0001001600180010001F0010C003001C00067
:1007B00030010C01F0010000000104018C00740103
:1007C00070018C01040000010101810171000E0023
:1007D0001801600180010000000184010C01340156
:1007E000440184010C000000000000000000000132
:1007F000003EFC400240020000000000000000FF3C
:10080000FF0000000000000000400240023EFC012A
:100810000000000000000000006000800080004038
:100820000040002000200000000000000000000048
:1008300000000000000000000000000000000000B8
:1008400000000000000000000003F00200020002AF
:10085000000200020003F0000000000000000000A1
:1008600000FE0002000200020002000200FE000082
:10087000000000000000000000FFF0000000000287
:10088000000200020002000200020000000E001F31
:10089000001F000E000000FFF0F1F0E0F0E0F0F1CA
:1008A000F0FFF00000000000000000000000000069
:1008B00000000000000000000000000000018002B5
:1008C000404E4071807800000032004A004FC04A1C
:1008D00000320000000000000000000000000000E6
:1008E0000000C03FC0280051807F80000064C01F0E
:1008F0000060C01F0064C0020002000200FFF0029E
:10090000000200000004000E001F003F807FC000B6
:100910000000004080FFC04080000000000000FE9A
:10092000C00000FEC00000000070008800FFC08012
:1009300000FFC0020002000200FE000200020002EE
:10094000000200020003F0020002000200020002A6
:1009500000FFF000000000000000004000FFC04069
:10096000000000000000000000FFF0020002000094
:10097000000400040004000E000400000004000E47
:10098000000400040004000000000000000000005B
:100990000000000000000000000000000000000057
:1009A0000000000000000000000000000000000047
:1009B0000000000000000000000000000000000037
:1009C000000000000000003F4000000000000000A8
:1009D000003000400030004000000009000BC03D26
:1009E000000BC03D00090018C024407FE0224031C8
:1009F000800000180024C01B000D803240018003DD
:100A0000801C4027401C8007400040100060000010
:100A1000000000000000000000000000001F802017
:100A20004040200000402020401F800000000009BE
:100A30000006001F80060009000000040004003FBB
:100A400080040004000000001000600000000000AE
:100A50000000000400040004000400040000000082
:100A60000000400000000000000000002001C0065F
:100A7000003800400000001F802040204020401F20
:100A8000800000000010403FC0004000000000183F
:100A9000C021402240244018400000108020402403
:100AA0004024401B80000002000D0011003FC001E7
:100AB0004000003C80244024402440238000001F4C
:100AC0008024402440344003800000300020002770
:100AD000C03800200000001B802440244024401B1C
:100AE0008000001C0022C0224022401F8000000025
:100AF00000000008400000000000000000000004AA
:100B000060000000000000000004000A0011002046
:100B100080404009000900090009000900000000A8
:100B2000004040208011000A00040018002000232B
:100B3000402400180000001F802040274029401F4B
:100B4000400000004007C039000F0001C0004020F5
:100B5000403FC0244024401B8000001F80204020D4
:100B60004020403080000020403FC0204020401FF7
:100B700080000020403FC024402E4030C0000020B4
:100B8000403FC024402E00300000000F00108020A5
:100B90004022403380020020403FC0040004003F58
:100BA000C02040204020403FC020402040000000A6
:100BB00060202020203FC02000200020403FC02493
:100BC000400B0030C0204020403FC020400040008B
:100BD0004000C03FC03C0003C03C003FC0000020BC
:100BE000403FC00C4023003FC020001F8020402019
:100BF0004020401F80000020403FC02440240018B7
:100C00000000001F802140214020E01FA0000020A4
:100C1000403FC02440260019C0004018C024402492
:100C200040224031800000300020403FC020403052
:100C300000000020003F80004000403F8020002056
:100C4000003E0001C0070038002000380007C03C0B
:100C50000007C038000000204039C0060039C0201D
:100C60004000002000384007C0384020000000301D
:100C70004021C02640384020C00000000000007F16
:100C8000E0402040200000000070000C00038000C5
:100C90004000000000402040207FE00000000000F5
:100CA00000200040002000000000000010001000A4
:100CB00010001000100010000000004000000000B4
:100CC000000000000002800540054003C0004020F5
:100CD000003FC00440044003800000000003800483
:100CE0004004400640000000000380044024403FD0
:100CF000C0004000000380054005400340000000A4
:100D00000004401FC0244024402000000002E005F1
:100D10005005500650042020403FC004400400030A
:100D2000C000400000044027C00040000000000058
:100D3000100010041027E00000000020403FC00118
:100D400040070004C00440204020403FC000400055
:100D500040000007C0040007C0040003C0000004F6
:100D60004007C00440040003C000400000038004AA
:100D700040044003800000041007F00450044003C6
:100D8000800000000003800440045007F0001004BD
:100D90004007C002400400040000000000064005B7
:100DA00040054004C00000000004001F8004400013
:100DB000400000040007800040044007C0004004D9
:100DC00000070004C0018006000400060001C007FF
:100DD0000001C006000000044006C0010006C00477
:100DE0004000000410071004E00180060004000029
:100DF00000044005C006400440000000000000045C
:100E0000007BE040200000000000000000FFF00038
:100E1000000000000040207BE004000000000040D3
:100E20000080004000200020004000000000000082
:100E3000000000000000000211ECE86480F8E933D3
:100E4000E83360110460F0ED33EC337009E8FCE93D
:100E5000FDEAFEEBFF220460DED3EB9FEA9EE99DF4
:100E6000E8C2E78CF0C2F795F0400CE8CCF8E9CD89
:100E7000F9EACEFAEBCFFB1211B785D0F058047027
:100E80000320D5B3E80470075002B2D50211F692E0
:100E9000D5EC0460F7E4CCC0E0C398F8603B94184C
:100EA0006008400DD0E0FB0211CEE4FBFAC9FC80E3
:100EB00028E830E406E4C9FBE4CAFCE830E305E4D2
:100EC000C9CACBFCE854076010F8C3E913F9EA1368
:100ED000FAEB13FBEC13FCD8F130F52FC3E49CFCC8
:100EE000EF9BFFEE9AFEED99FDD0E0FBEF4E4D4CEF
:100EF000701222DB030211F3EC2CFCEF33FFEE3314
:100F0000FEED33FDED30E7EB0211CEEF2BFFEE3AB5
:100F1000FEED39FDD0E0FB50130BBB00030211F6D0
:100F2000ED13FDEE13FEEF13FFEC13FC0211CEECFC
:100F30004D6011E8497017ED33EC3304600DE4FCAB
:100F4000FFFEFD22E933E8330470F80211EC1211C0
:100F5000B758046009E4CC248150062850090211D6
:100F6000F62840030211F3C0E0EB4A7044B9800652
:100F7000D0E0FB0211E2EF4E701CBD8008EBFFEAEF
:100F8000FEE9FD80EBE98DF0A4FEE5F0021018E922
:100F9000CDF9EAFEEBFFEF89F0A4FCE5F0CE89F095
:100FA000A42EFFE435F0CD89F0A42DFEE435F080C9
:100FB00067EF4E7005BD80D780C3EF8BF0A4ACF017
:100FC000EE8BF0A42CFCE435F0F8EF8AF0A42CE5CD
:100FD000F038FCE433CB8DF0A42CFCE5F03BF8EECC
:100FE0008AF0A42CFCE5F038F8E433CF89F0A42C87
:100FF000FCE5F038CF3400CE89F0A42FFFE5F03EB9
:10100000FEE433C98DF0A42EFEE5F039CD8AF0A4BC
:101010002FFFE5F03EFEE43DFD33D0E0FB50070B33
:10102000BB000F0211F6EC2CFCEF33FFEE33FEEDAC
:1010300033FD0211CE0211F6EC5D046005E859049F
:1010400070030211EC1211B7580460F6EC4860F21C
:10105000EC7004FDFEFF22C860DB2481C85009C388
:1010600098600250060211F39850CAF582E9294BA4
:101070004A7005AB820211E275F0007C1A7880C3D9
:10108000EF9BEE9AED99400DC3EF9BFFEE9AFEEDBC
:1010900099FDE842F0DC23ACF0D0E0FFD0E0FED0D8
:1010A000E0FDAB8220E7101BEB60BAEC2CFCEF33C9
:1010B000FFEE33FEED33FD0211CEE803F830E70515
:1010C000C0F075F000EF2FFFEE33FEED33FD40B8BA
:1010D00030E7C280AA74F8CC6480CCC86480C8F5BC
:1010E00082046043C3EB9FF5F0EA9E42F0E99D4223
:1010F000F0E89C45F060305018E5825FFFE582F42F
:101100002B5582FB50210ABA001D09B9001908802D
:1011100016E5825BFBE582F42F5582FF50090EBE77
:1011200000050DBD00010CC3EB9FF5F0EA9E42F0F7
:10113000E99D42F0E89C45F06007CC4820E701B308
:10114000EC2275F020800E75F010800575F0087D9A
:10115000007E007F003392D530D503121555EC3355
:101160004010EF33FFEE33FEED33FDEC33FCD5F0F2
:10117000ED22E5F0247EA2D513CC92E7CDCEFF225E
:10118000EDD2E7CD33EC3392D524814006E4FFFE67
:10119000FDFC22FCE4CFCECDCC24E0501174FF80C6
:1011A000EDC3CC13CCCD13CDCE13CECF13CF047063
:1011B000F030D5DE021555E9D2E7C933E833F892AD
:1011C000D5EDD2E7CD33EC33FC5002B2D522EC3072
:1011D000E7100FBF000C0EBE00080DBD00040BEBA6
:1011E0006014A2D5EB13FCED92E7FD2274FFFCFD29
:1011F000FEFF22E480F8A2D574FF13FC7D80E4801A
:10120000EFBB010689828A83E0225002E722BBFEFF
:1012100002E32289828A83E49322BB010CE58229BE
:10122000F582E5833AF583E0225006E92582F8E667
:1012300022BBFE06E92582F8E222E58229F582E555
:10124000833AF583E49322BB010689828A83F022E4
:101250005002F722BBFE01F322F8BB010DE5822903
:10126000F582E5833AF583E8F0225006E92582C845
:10127000F622BBFE05E92582C8F222EF8DF0A4A874
:10128000F0CF8CF0A428CE8DF0A42EFE22BC000B53
:10129000BE0029EF8DF084FFADF022E4CCF875F0AC
:1012A00008EF2FFFEE33FEEC33FCEE9DEC9840058B
:1012B000FCEE9DFE0FD5F0E9E4CEFD22EDF8F5F051
:1012C000EE8420D21CFEADF075F008EF2FFFED3359
:1012D000FD4007985006D5F0F222C398FD0FD5F0D7
:1012E000EA22C2D5EC30E709B2D5E4C39DFDE49C07
:1012F000FCEE30E715B2D5E4C39FFFE49EFE121268
:101300008DC3E49DFDE49CFC800312128D30D50753
:10131000C3E49FFFE49EFE22C5F0F8A3E028F0C5D9
:10132000F0F8E582158270021583E038F022A3F808
:10133000E0C5F025F0F0E582158270021583E0C863
:1013400038F0E822BB010A89828A83E0F5F0A3E045
:1013500022500687F009E71922BBFE07E3F5F009E2
:10136000E3192289828A83E493F5F074019322BB06
:101370000110E58229F582E5833AF583E0F5F0A3D3
:10138000E0225009E92582F886F008E622BBFE0A31
:10139000E92582F8E2F5F008E222E5832AF583E9FF
:1013A00093F5F0A3E99322BB010789828A83021394
:1013B00018500B09C5F027F7C5F01937F722BBFE07
:1013C0000D09F8E325F0F3C5F019E338F322F889A5
:1013D000828A8374019325F0C5F0F8E4933822BB28
:1013E000010A89828A83F0E5F0A3F0225006F7090A
:1013F000A7F01922BBFE06F3E5F009F31922F8BBAA
:101400000111E58229F582E5833AF583E8F0E5F0FC
:10141000A3F0225009E92582C8F608A6F022BBFEF7
:1014200009E92582C8F2E5F008F222E88FF0A4CCA1
:101430008BF0A42CFCE98EF0A42CFC8AF0EDA42CFB
:10144000FCEA8EF0A4CDA8F08BF0A42DCC3825F0CA
:10145000FDE98FF0A42CCD35F0FCEB8EF0A4FEA9B5
:10146000F0EB8FF0A4CFC5F02ECD39FEE43CFCEAC2
:10147000A42DCE35F0FDE43CFC2275F00875820009
:10148000EF2FFFEE33FECD33CDCC33CCC58233C549
:10149000829BED9AEC99E58298400CF582EE9BFEDA
:1014A000ED9AFDEC99FC0FD5F0D6E4CEFBE4CDFA35
:1014B000E4CCF9A88222B800C1B90059BA002DECD9
:1014C0008BF084CFCECDFCE5F0CBF97818EF2FFF71
:1014D000EE33FEED33FDEC33FCEB33FB10D7039919
:1014E0004004EB99FB0FD8E5E4F9FA227818EF2FC6
:1014F000FFEE33FEED33FDEC33FCC933C910D705E5
:101500009BE99A4007EC9BFCE99AF90FD8E0E4C903
:10151000FAE4CCFB2275F010EF2FFFEE33FEED3333
:10152000FDCC33CCC833C810D7079BEC9AE8994060
:101530000AED9BFDEC9AFCE899F80FD5F0DAE4CDC2
:10154000FBE4CCFAE4C8F922CFF4CFCEF4CECDF44C
:10155000CDCCF4CC22C3E49FFFE49EFEE49DFDE4E9
:101560009CFC22EB9FF5F0EA9E42F0E99D42F0E8F8
:101570009C45F022E8600FECC313FCED13FDEE1365
:10158000FEEF13FFD8F122E8600FEFC333FFEE3315
:10159000FEED33FDEC33FCD8F122BB010789828AD2
:1015A00083021B575005E9F8021628BBFE05E9F82F
:1015B000021B6389828A83021B6FBB010DE58229AE
:1015C000F582E5833AF583021B575007E92582F837
:1015D000021628BBFE07E92582F8021B63E5822973
:1015E000F582E5833AF583021B6FBB010789828A86
:1015F000830217075005E9F80216FBBBFE05E9F860
:10160000021BA822BB010DE58229F582E5833AF58C
:10161000830217075007E92582F80216FBBBFE0775
:10162000E92582F8021BA822E6FC08E6FD08E6FE92
:1016300008E6FF22E6FB08E6F908E6FA08E6CBF83A
:1016400022BB010789828A83021B7F5005E9F802C9
:101650001634BBFE05E9F8021B8B89828A83021BC4
:1016600098BB010DE58229F582E5833AF583021BDB
:101670007F5007E92582F8021634BBFE07E9258270
:10168000F8021B8BE58229F582E5833AF583021B7C
:10169000987401FF3395E0FEFDFCA3A3A3E0CF2FD8
:1016A000F0E582158270021583E0CE3EF0E58215EA
:1016B0008270021583E0CD3DF0E58215827002153F
:1016C00083E0CC3CF0227401FF3395E0FEFDFCA3E7
:1016D000A3A3E02FFFF0E582158270021583E03EA0
:1016E000FEF0E582158270021583E03DFDF0E58293
:1016F000158270021583E03CFCF022ECF608EDF652
:1017000008EEF608EFF622ECF0A3EDF0A3EEF0A35E
:10171000EFF022D083D082E493F608740193F608A8
:10172000740293F608740393F6740473A882858395
:10173000F0D083D0821217431217431217431217A7
:1017400043E473E493A3C583C5F0C583C8C582C8C9
:10175000F0A3C583C5F0C583C8C582C822BB010DEF
:10176000E58229F582E5833AF58302172C5007E9D3
:101770002582F8021713BBFE07E92582F8021BB485
:1017800022BB010789828A83021BDF5005E9F80228
:101790001BCDBBFE05E9F8021BF189828A83021C7E
:1017A00003BB011A89828A83D0F0D0E0F8D0E0F937
:1017B000D0E0FAD0E0FBE8C0E0C0F0021BE8501631
:1017C000E9F8D083D082D0E0F9D0E0FAD0E0FBC0D5
:1017D00082C083021BD6BBFE16E9F8D083D082D02C
:1017E000E0F9D0E0FAD0E0FBC082C083021BFA220D
:1017F000BB010DE58229F582E5833AF583021BDF03
:101800005007E92582F8021BCDBBFE07E92582F8C7
:10181000021BF1E58229F582E5833AF583021C0378
:10182000BB0120E58229F582E5833AF583D0F0D02B
:10183000E0F8D0E0F9D0E0FAD0E0FBE8C0E0C0F09A
:10184000021BE85018E92582F8D083D082D0E0F955
:10185000D0E0FAD0E0FBC082C083021BD6BBFE18EA
:10186000E92582F8D083D082D0E0F9D0E0FAD0E048
:10187000FBC082C083021BFA22D083D082F8E4939B
:101880007012740193700DA3A393F8740193F58201
:101890008883E473740293B5F0067403936860E977
:1018A000A3A3A3A380D8EC8EF0A4CCC5F0CCCDF834
:1018B000EFA4CEC5F02DFDE43CFCE8A42EC8C5F095
:1018C0003DFDE43CFCEFA4FFE5F028FEE43DFDE433
:1018D0003CFC22E3F5F009E208B5F06D606B80F3A3
:1018E000E3F5F009E608B5F060605E80F387F00983
:1018F000E608B5F054605280F487F009E208B5F0CC
:1019000048604680F488828C8387F009E0A3B5F0B4
:1019100038603680F488828C8387F009E493A3B51D
:10192000F027602580F388828C83E3F5F009E0A33B
:10193000B5F016601480F388828C83E3F5F009E437
:1019400093A3B5F004600280F20219FE808580E75F
:10195000808E80D2803C8015806C807E809B80B59C
:10196000808B80A1804F8070803A021A0A89828A17
:1019700083ECFAE493F5F0A3C8C582C8CCC583CC48
:10198000E493A3C8C582C8CCC583CCB5F070606EA3
:1019900080E189828A83E493F5F0A3E208B5F05EE2
:1019A000605C80F289828A83E0F5F0A3E608B5F0F6
:1019B0004D604B80F389828A83E0F5F0A3E208B59D
:1019C000F03C603A80F389828A83E493F5F0A3E6E1
:1019D00008B5F02A602880F2805389828A83ECFA65
:1019E000E493F5F0A3C8C582C8CCC583CCE0A3C8F6
:1019F000C582C8CCC583CCB5F004600280E27FFF0D
:101A0000B5F0020F2240027F012289828A83ECFA1C
:101A1000E0F5F0A3C8C582C8CCC583CCE0A3C8C597
:101A200082C8CCC583CCB5F0D560D380E389828AE7
:101A300083ECFAE0F5F0A3C8C582C8CCC583CCE43A
:101A400093A3C8C582C8CCC583CCB5F0B160AF80C4
:101A5000E288F0ED2402B4040050A3F582EB2402E6
:101A6000B404005099232345822390194C73E7094D
:101A7000F60870FA8046E709F20870FA803E88821C
:101A80008C83E709F0A370FA807EE309F60870FA08
:101A90008076E309F20870FA806E88828C83E3090D
:101AA000F0A370FA806289828A83E0A3F60870FA54
:101AB000805689828A83E0A3F20870FA804A80D235
:101AC00080FA80C680D4806580F28031801080A644
:101AD00080EA809A80A880DA80E280CA8031898298
:101AE0008A83ECFAE493A3C8C582C8CCC583CCF042
:101AF000A3C8C582C8CCC583CC70E9800D89828A11
:101B000083E493A3F60870F9ECFAA9F0EDFB2289BF
:101B1000828A83ECFAE0A3C8C582C8CCC583CCF026
:101B2000A3C8C582C8CCC583CC70EA80DD89828A0F
:101B300083E493A3F20870F980CE88F0ED2402B418
:101B4000040050C4F582EB2402B4040050BA2323ED
:101B5000458223901ABE73E0FCA3E0FDA3E0FEA340
:101B6000E0FF22E2FC08E2FD08E2FE08E2FF22E4D8
:101B700093FC740193FD740293FE740393FF22E0BF
:101B8000F8A3E0F9A3E0FAA3E0FB22E2FB08E2F904
:101B900008E2FA08E2CBF822E493F8740193F974AE
:101BA0000293FA740393FB22ECF208EDF208EEF2D2
:101BB00008EFF222D083D082E493F208740193F20A
:101BC00008740293F208740393F2740473E6FB083A
:101BD000E6FA08E6F922EBF608EAF608E9F622E06A
:101BE000FBA3E0FAA3E0F922EBF0A3EAF0A3E9F00B
:101BF00022E2FB08E2FA08E2F922EBF208EAF20834
:101C0000E9F222E493FB740193FA740293F92256E9
:101C1000533130303320496E69742E2E2E09094F0E
:101C20004B0A008050361300243E00380100001695
:101C3000D7F40055C000000A17F40057C000065042
:101C400017B08000243F0000242000000036F01868
:101C500001280031C0805C3E12B8173E1238153E94
:101C600005B814361500240000800A3E1038010023
:101C70000600003E10B803000003033E1138053E85
:101C800011B8073E143812B884130C3410402441A4
:101C90001210D04010008C40100024F4004012308C
:101CA0000038403009380100000041FE02002429BC
:101CB00000844048B2002436F3084463068845AEE9
:101CC0003A8840BF8E8B41AC32A846FFC8ABC73EB6
:101CD000017800F40044806090002460900024F4B7
:101CE00000401530093446300937C7300918003034
:101CF00009384448B3E1E048824040FECA00245A13
:101D0000C200245A5200244CC2002448BA40404E1B
:101D1000EA48014ECA9800FF801BC1F1EBE3E2F1F3
:101D2000EA184C4C8BE5E448BE9804488E41C6FE48
:101D30008200245A8E0024525E1B854FFE002448E8
:101D4000B641C64DD648C74DF60024F1D60024F161
:101D5000D600244EDA002400000FC3290084404E30
:101D60008200244084130C000601003440402440CB
:101D7000100024F400401232004024B1320024420A
:101D8000140024F224002462300024000100012801
:101D9000002B4900000024F40040C232000024FF60
:101DA00082002448B20024B13000246202002400E2
:101DB0003FF00128002E5100001046FE6400244828
:101DC000BE002428002F403A01802432000024B0B5
:101DD000100024C02000243A00002436F4181236E3
:101DE000F1980736F1180536F0980336F0180134EB
:101DF00005901436F3002436F21815200000003642
:101E0000F2981780C73E12B8173E1238153E05B833
:101E100014362500240000800A3E1078023E10F897
:101E2000043E1178103E147813000600513E13F85A
:101E30000E3E1340243009384030093852291964C5
:101E4000C0000606D031005BD2000655D13009181B
:101E5000003009040261260024000600D128004D4C
:101E600005B8820024000600113009385000060031
:101E70001030093800291D58000000180000060025
:101E800010B8820024291D5B000000170000000329
:101E90000139005BC0000655D130091BD030090460
:101EA000040006005128003D003901002444480484
:101EB000014192002464982401001F400164120033
:101EC000240006001128003C510000058E24004C1F
:101ED0000E000000130006005100061A03310040F6
:101EE00024F21244C443460024F40040D535008057
:101EF00024612A00240000002428004C5100000026
:101F0000243613002431003800291D8000F200001F
:101F100024003FFEC24082441131131BC0A12200A5
:101F20002400002002612424010000100228004641
:101F30000800000024003FF80231004024B12400D2
:101F40002428004BC03900802461240024000008AC
:101F5000022800484800000024003FFE02310040F3
:101F600024B124002428004BC039008024612400BF
:101F7000240000040228004A8800000024003FFFDB
:101F80000231004024B124002428004BC0390080D5
:101F90002461240401003FFF8228004BC8B12400C3
:101FA0002439008024B8828C4C383040240006004C
:101FB000913904D84C000600D10000001331009084
:101FC0004C42029BCC39F04024310040243C00407C
:101FD00024F40044C134F080246126002400060665
:101FE000D028005DD84294002424005D82000000C7
:101FF00024F40044113123002431008024420200E3
:1020000024418224010000200228005D8900000094
:10201000243013184C30F078526124B85000060078
:102020000128005588408844C242240024412200EF
:102030002441220024F4004051290074400000563D
:10204000C84224002441220024412200242900699E
:10205000C0F40040510004000230091BD030231BA3
:10206000D230E040246124002400004002280059BE
:102070008800000024000000013820402430E040A7
:102080002461240001003FFF4228005D8841820056
:10209000240000002428005D950000002436130071
:1020A000243E14C024290017003E14002436E30007
:1020B0008C30E04024FE22441148B6048C39008064
:1020C0002430330C4C00060011689204C2A1220493
:1020D000026126002400060093280067010000002A
:1020E00024B882184C34133812000600D23A005B30
:1020F000D233004024000000133C004024F400448C
:10210000C134F080246126002400060111280067F4
:102110001842940024240066C2000000240003F04A
:102120000131010024B412002400280001280066B7
:10213000C561440024000400022800668144220096
:10214000240000100264220024280066C0390040E8
:10215000243900402431130C4C36F3402436F3D894
:102160000E36F4581336F1581036F0D80436F058BD
:10217000023405901436F3002436F21815200000BE
:102180000036F2981718680032004F007E00C80130
:102190003D01F8032004F607E00C8013D81F7F32BE
:1021A000004F5F61A8000000000000000000000078
:1021B000000000000081A73E12B8140000800A3E13
:1021C0001038013E10B8033E1178063E11F8133E58
:1021D00013F80E3E1340243E047810449A00400049
:1021E00001000328007304403603C10003FFC2B39B
:1021F0002600240018004243264495402440D20083
:10220000000180A100409000100FC242040024BCD5
:10221000824091459A00240000005428007204BDB9
:10222000864093240071C5FE015E0C5C435F2D5E09
:1022300046020C5C568A0C5E535E0C5C435F2D5E5E
:1022400046020C5C568A0C5E5200244CB2440500D7
:10225000180044654A00242800800036F458108194
:10226000D13E12B8140000800A3E1038013E10B86A
:10227000033E1178063E11F8133E13F80E3E13404C
:10228000243E047810449A00400000080328007E91
:10229000C430F040240FFFFEC2A02000240FFFFF37
:1022A00002A12200244036002400001FC2B32600F1
:1022B000240010400243264495402440D2000001EF
:1022C00080A10040900010004242040024BC8240E3
:1022D00091459A00240000005428007DC4BD86402A
:1022E0009324007D85FE015E0C5C435F2D5E4600FD
:1022F000245C5600245E535E0C5C435F2D5E4600FA
:10230000245C5600245E5200244CB2440500104068
:1023100004654A981000000144A54A1BD10006003C
:10232000133301C444687E2005AD7684454ED687BC
:102330008436F364C2AC7287854EC2A4433009244C
:10234000403009274136F3D80E36F1D81336F1580C
:102350000636F0980336F018012000000036F29897
:102360001482114C8200240000002420000005F596
:10237000C20024000009802000000060100024003A
:102380005000000008001000180020002800300055
:102390003800400050006000700080009000A000F5
:1023A00000000000200028003000380040005000ED
:1023B000600070008000A000C000E001000140004B
:1023C000007BFF7AA779CB12C16C7BFF7AA779EDEE
:1023D00012C16C127F1A900326E4F0A37400F0A3DC
:1023E000741FF07B007A00791E129493E51EC3944B
:1023F000FF50E378B6E6B4011EE51ED3945040D6F4
:10240000E51E946450D0E51F94DC40CAE51F94FAA1
:1024100050C412C73480BFE51ED394005003022479
:10242000F7E51E94B040030224F7E51F941750030C
:102430000224F7E51F942740030224F7751764125E
:10244000C0919003C6E0FF12AA82900326E4F0A395
:102450007400F0A3741FF07B007A00791E1294932D
:10246000E51EC394FF40030224ED78B6E6B4011ED6
:10247000E51ED394504076E51E94645070E51F9499
:10248000DC406AE51F94FA506412C734805FE51E91
:10249000D394854015E51E9495500FE51F947A401E
:1024A00009E51F948A50030229E8E51EC3942140E0
:1024B0003CE51ED3948F5035E51F948C402FE51FCB
:1024C00094BA5029E51E948A4005751E8A800AE553
:1024D0001EC394265003751E26E51E24DAFF9003C2
:1024E000C6F012AA829003C6E0FF12C6F27F147EE5
:1024F0000012C5EE02244AE51ED3940050030225C3
:10250000EBE51E94B040030225EBE51F942A50032F
:102510000225EBE51F943A40030225EB7517641280
:10252000B46CE50E75F064A4FFAEF07C007D1F1264
:10253000128D9003C6EFF012AA82AF0E12BA30903D
:102540000326E4F0A37400F0A3741FF07B007A006C
:10255000791E129493E51EC394FF40030225E1788F
:10256000B6E6B4011EE51ED394504075E51E946492
:10257000506FE51F94DC4069E51F94FA506312C761
:1025800034805EE51ED394854015E51E9495500F6A
:10259000E51F947A4009E51F948A50030229E8E573
:1025A0001EC39421403BE51ED3948F5034E51F9405
:1025B0008C402EE51F94BA5028E51E24DAFF9003C4
:1025C000C6F012AA829003C6E075F01FA4FFAEF019
:1025D0007C007D6412128D8F0E12C489AF0E12BA68
:1025E000307F147E0012C5EE02253FE51ED3940015
:1025F0005003022802E51E94B04003022802E51FA2
:10260000943D5003022802E51F944D400302280226
:102610001286B0900326E4F0A37400F0A3741FF0B8
:102620007B007A00791E129493E51EC394FF50E359
:1026300078B6E6B4012BE51ED3945050030227F878
:10264000E51E946440030227F8E51F94DC50030262
:1026500027F8E51F94FA40030227F812C73402272F
:10266000F8E51ED394004015E51E943A500FE51F7F
:1026700094DC4009E51F94FA50030223D3E51EC3FE
:102680009412404FE51ED394A35048E51F943C405C
:1026900042E51F945A503CE50975F08CA4FFAEF05A
:1026A0007C007D0F12128D9003C6EFF0F517E51E2A
:1026B00024EEF0FD7F4B12A4F89003C6E075F00FF6
:1026C000A4FFAEF07C007D8C12128D8F09125B5935
:1026D0000227E9E51EC39412405BE51ED394A35084
:1026E00054E51F945A404EE51F94785048E5107504
:1026F000F08CA4FFAEF07C007D0F12128D9003C60B
:10270000EFF0F517E51E24EEF0FD7F6912A4F890B6
:1027100003C6E075F00FA4FFAEF07C007D8C1212B2
:102720008D8F10E510C394015003751001AF101286
:10273000BA7E0227E9E51EC39412404EE51ED394EB
:10274000A35047E51F948C4041E51F94AA503BE5F8
:102750001175F08CA4FFAEF07C007D0F12128D90ED
:1027600003C6EFF0F517E51E24EEF0FD7F9B12A4E3
:10277000F89003C6E075F00FA4FFAEF07C007D8CEE
:1027800012128D8F1112BACB805FE51EC3941240D6
:1027900067E51ED394A35060E51F94AA405AE51F35
:1027A00094C85054E50F75F08CA4FFAEF07C007D0A
:1027B0000F12128D9003C6EFF0F517E51E24EEF010
:1027C000FD7FB912A4F89003C6E075F00FA4FFAE28
:1027D000F07C007D8C12128D8F0FE50FC394025098
:1027E00003750F02AF0F12B98D90031CE50FF0AB0C
:1027F00011AD10AF0912B2C47F147E0012C5EE02F3
:102800002613E51ED394005003022A00E51E94B05F
:102810004003022A00E51F94505003022A00E51FDE
:1028200094604003022A00129F3D900326E4F0A327
:102830007400F0A3741FF07B007A00791E12949349
:10284000E51EC394FF50E378B6E6B4011EE51ED33F
:10285000945040D6E51E946450D0E51F94DC40CAE5
:10286000E51F94FA50C412C73480BFE51ED3948587
:102870004015E51E9495500FE51F947A4009E51F19
:10288000948A50030229E8E51EC3943250030229BA
:10289000C2E51ED3945240030229C2E51F94A750FB
:1028A000030229C2E51F94BB40030229C2900348DA
:1028B0007445F074FFA3F0A3F07B7E7D787F19123E
:1028C000BC3C12C80F900333740CF0A374FFF0A348
:1028D00074A8F0A37401F0A3740CF0A374F8F0A32F
:1028E000E4F0A3F0A3741FF0E4A3F07B6C7D947F6D
:1028F00022124416E4FF124C96900348740CF0A385
:102900007473F0A3748EF07B6C7D947F2212BC3CB8
:10291000900333740CF0A374FFF0A374A8F0A374B5
:1029200014F0A3740CF0A374F8F0A3E4F0A3F0A3E4
:10293000741FF0E4A3F07B6C7D947F221244169008
:102940000333740CF0A374FFF0A374A8F0A37422F3
:10295000F0A3740CF0A374F8F0A3E4F0A3F0A37454
:102960001FF0E4A3F07B6C7DA67F221244167F014A
:10297000124C96900348740CF0A37473F0A3748EF9
:10298000F07B6C7DA67F2212BC3C900333740CF06C
:10299000A374FFF0A374A8F0A37435F0A3740CF033
:1029A000A374F8F0A3E4F0A3F0A3741FF0E4A3F081
:1029B0007B6C7DA67F221244167FE87E0312C5EE53
:1029C0008026E51EC39462500302282AE51ED39494
:1029D00082400302282AE51F94A7500302282AE513
:1029E0001F94BB400302282A9003487445F074FFEB
:1029F000A3F0A3F07B7E7D787F1912BC3C0223D626
:102A0000E51ED394004018E51E94B05012E51F94C3
:102A100063400CE51F94735006122A4D0223D3E540
:102A20001ED3940050030223D6E51E943A400302BD
:102A300023D6E51F94DC50030223D6E51F94FA4009
:102A4000030223D67BFF7AA8794302C16CE490038A
:102A500019F0A3F090031DF074FFFFFE12C37090F5
:102A600003217409F0E4A3F0A3F0A304F07BB0E425
:102A7000FDFF12A9F99003217409F0A3E4F0A374F7
:102A80001EF0E4A3F07BB07D09FF12A9F97BFF7A69
:102A90007679249003297410F0A374B0F074FFA326
:102AA000F0A3F0E4A3F0A3F07D01FF129B8B900351
:102AB000487401F0E4A3F0A3F07BB07D12FF12BCD8
:102AC0003C90034874C9F0A374CEF0A37459F07B12
:102AD000B07D13E4FF12BC3C900333740CF0A3747C
:102AE000FFF0A37476F0A3742DF0A3740CF0E4A3AC
:102AF000F0A3F0A37473F0A3748EF0E4A3F07BAEA4
:102B00007D177F02124416900333740CF0A374FFF8
:102B1000F0A37476F0A37448F0A3740CF0E4A3F06F
:102B2000A3F0A37473F0A3748EF0E4A3F07BAE7DE6
:102B3000267F02124416900333740CF0A374FFF046
:102B4000A37476F0A37456F0A3740CF0E4A3F0A37E
:102B5000F0A37473F0A3748EF0E4A3F07BAE7D3524
:102B60007F02124416E47F04FEFDFCAB78AA77A92D
:102B700076A87512142BE4FB7A04F9F81214B690B7
:102B8000032D1217079003317404F0A3740CF0E4C2
:102B9000A3F0A3F0A37473F0A3748EF0E4A3F07D0C
:102BA000357F2012965BE47F04FEFDFCAB54AA53F4
:102BB000A952A85112142BE4FB7A04F9F81214B6A6
:102BC00090032D1217079003317404F0A3740CF0D6
:102BD000E4A3F0A3F0A37473F0A3748EF0E4A3F065
:102BE0007D357F4A12965B900333740CF0A374FF1B
:102BF000F0A37476F0A37469F0A3740CF0E4A3F06E
:102C0000A3F0A37473F0A3748EF0E4A3F07BAE7D05
:102C1000447F02124416900333740CF0A374FFF047
:102C2000A37476F0A3747EF0A3740CF0E4A3F0A375
:102C3000F0A37473F0A3748EF0E4A3F07BAE7D5325
:102C40007F02124416900333740CF0A374FFF0A3B8
:102C50007476F0A37492F0A3740CF0E4A3F0A3F0E4
:102C6000A37473F0A3748EF0E4A3F07BAE7D627F57
:102C700002124416900333740CF0A374FFF0A37493
:102C800076F0A374A1F0A3740CF0E4A3F0A3F0A376
:102C90007473F0A3748EF0E4A3F07BAE7D717F02B9
:102CA000124416900333740CF0A374FFF0A37476EF
:102CB000F0A374B1F0A3740CF0E4A3F0A3F0A37438
:102CC00073F0A3748EF0E4A3F07BAE7D807F0212DC
:102CD0004416900333740CF0A374FFF0A37476F0E1
:102CE000A374C1F0A3740CF0E4A3F0A3F0A3747375
:102CF000F0A3748EF0E4A3F07BAE7D8F7F021244CC
:102D000016900333740CF0A374FFF0A37476F0A351
:102D100074D3F0A3740CF0E4A3F0A3F0A37473F0E5
:102D2000A3748EF0E4A3F07BAE7D9E7F0212441666
:102D3000900319E065797004A3E0657A7003022FAF
:102D40003F900319E579F0A3E57AF0900348740CFD
:102D5000F0A374CEF0A37459F07B2A7D8F7F3E12CE
:102D6000BC3CAE79AF7A7C007D3C12128DAE04AFD4
:102D700005E4FCFD90032D1217079003317402F057
:102D8000A3740CF0E4A3F0A3F0A37473F0A3748E07
:102D9000F0E4A3F07D8F7F5C12965B900333740C9C
:102DA000F0A374FFF0A37476F0A374ECF0A3740C9A
:102DB000F0E4A3F0A3F0A37473F0A3748EF0E4A383
:102DC000F07B067D8F7F56124416AE79AF7A7C0079
:102DD0007D3C12128D7C007D3C12128DAE04AF053D
:102DE000E4FCFD90032D1217079003317402F0A349
:102DF000740CF0E4A3F0A3F0A37473F0A3748EF04A
:102E0000E4A3F07D8F7F4A12965B900333740CF03D
:102E1000A374FFF0A37476F0A374ECF0A3740CF029
:102E2000E4A3F0A3F0A37473F0A3748EF0E4A3F012
:102E30007B067D8F7F44124416AE79AF7A7C007D8D
:102E40003C12128D7C007D3C12128DE4FCFD90033F
:102E50002D1217079003317401F0A3740CF0E4A352
:102E6000F0A3F0A37473F0A3748EF0E4A3F07D8F4D
:102E70007F3E12965B12981D90031BEEF0A3EFF0BD
:102E8000900348740CF0A374CEF0A37459F07B182F
:102E90007D807F3E12BC3C90031BE0FEA3E0FF7CE4
:102EA000007D6412128DE4FCFD90032D1217079033
:102EB00003317401F0A3740CF0E4A3F0A3F0A37445
:102EC00073F0A3748EF0E4A3F07D807F3E12965BD6
:102ED000900333740CF0A374FFF0A37476F0A37422
:102EE000EEF0A3740CF0E4A3F0A3F0A37473F0A3CA
:102EF000748EF0E4A3F07B067D807F44124416902C
:102F0000031BE0FEA3E0FF7C007D6412128DAE0483
:102F1000AF05E4FCFD90032D1217079003317402F6
:102F2000F0A3740CF0E4A3F0A3F0A37473F0A37403
:102F30008EF0E4A3F07D807F4A12965B022D3090E4
:102F40000326E4F0A37400F0A3741FF07B007A0062
:102F5000791E129493E51EC394FF4003022D30782E
:102F6000B6E6B4012BE51ED394505003022D30E594
:102F70001E94644003022D30E51F94DC5003022DA3
:102F800030E51F94FA4003022D3012C734022D3071
:102F9000E51ED394005003022D30E51E943A400301
:102FA000022D30E51F94DC5003022D30E51F94FA0A
:102FB0004003022D3022900319EBF0A3EAF0A3E9BD
:102FC000F0757C00757D00757E00900319E0FBA311
:102FD000E0FAA3E0F9EA494B7002FF2212C832EF8F
:102FE00030E0037F022290034112172C0000000002
:102FF000128EC290031CEFF06401600302309A7BD2
:10300000017A03791D900341E0FCA3E0FDA3E0FEFB
:10301000A3E0FF90039B7401F0A374BEF0A3E4F05F
:10302000A37410F01281ACEF600890031C7403F0DD
:103030008068900321E06062900327E0FFE4FCFDDC
:10304000FE7810121587C004C005C006C007A3E0B3
:10305000FFE4FCFDFE7818121587D003D002D001E2
:10306000D000EF4BFFEE4AFEED49FDEC48FCA80412
:10307000A905AA06AB07900326E0FEEA4EFA9003E4
:1030800025E0FFEB4FFFEAFEE9FDE8FC900341126B
:103090001707128EC290031CEFF090031CE0FEB4E1
:1030A00003037F0122EE60037F07227B017A03790D
:1030B0001D900341E0FCA3E0FDA3E0FEA3E0FF9030
:1030C000039BE4F0A3740DF0A3E4F0A37424F012C6
:1030D00081ACEF60037F0122900327E0FE9003267E
:1030E000E0FDEDFFE4FCFD9003451217079003455A
:1030F000E0FCA3E0FDA3E0FEA3E0FFEC4D4E4F702B
:103100005A900336E0FFE4FCFDFE7810121587C0EC
:1031100004C005C006C007A3E0FFE4FCFDFE78186C
:10312000121587D003D002D001D000EF4BFFEE4A3A
:10313000FEED49FDEC48FCA804A905AA06AB0790E2
:103140000335E0FEEA4EFA900334E0FFEB4FFFEA6E
:10315000FEE9FDE8FC900345121707900345E0F8EF
:10316000A3E0F9A3E0FAA3E0FB900320E0FFE4FC76
:10317000FDFE12142B90034512170790031FE0FE6B
:1031800090031EE0FDEDFFE4FCFD900341E0F8A399
:10319000E0F9A3E0FAA3E02FFFEA3EFEED39FDECF3
:1031A00038FC900319E0FBA3E0FAA3E0F990000AD1
:1031B00012160490031DE09000021212599003228F
:1031C000E0FE900321E0FDEDFF900004EE8FF01291
:1031D00013FE900324E0FE900323E0FDEDFFE4FCEA
:1031E000FD900349121707900349E0FCA3E0FDA3FB
:1031F000E0FEA3E0FFEC4D4E4F705A900332E0FF2B
:10320000E4FCFDFE7810121587C004C005C006C09E
:1032100007A3E0FFE4FCFDFE7818121587D003D069
:1032200002D001D000EF4BFFEE4AFEED49FDEC4825
:10323000FCA804A905AA06AB07900331E0FEEA4EFC
:10324000FA900330E0FFEB4FFFEAFEE9FDE8FC9067
:10325000034912170790031FE0FE90031EE0FDEDE7
:10326000FBAA06900349E0FCA3E0FDA3E0FEA3E077
:10327000C39BFFEE9AFEED9400FDEC9400FC9003DE
:1032800045E0F8A3E0F9A3E0FAA3E0FBC3EF9BFF5E
:10329000EE9AFEED99FDEC98FCC006C0079003196C
:1032A000E0FBA3E0FAA3E0F990000412136FFFE53E
:1032B000F0C4F854F0C868FEEFC4540F48FBAA06E7
:1032C000D007D006C3EF9BFFEE9AFEED9400FDEC15
:1032D0009400FCC007900319E0FBA3E0FA90000201
:1032E00012121AFBE4FAF9F8D0071214B6EF24020E
:1032F000FFE43EFEE43DFDE43CFC90034D12170765
:1033000090034DE0FCA3E0FDA3E0FEA3E0FF9003EB
:1033100019E0FBA3E0FAA3E0F9900006121604906E
:10332000031C7402F0E47FF77E0FFDFC90034DE078
:10333000F8A3E0F9A3E0FAA3E0FBC312156350037E
:103340007F0722E47FF77EFFFDFC90034DE0F8A3AA
:10335000E0F9A3E0FAA3E0FBC31215634006900373
:103360001C7403F090031CE0FF900319E0FBA3E042
:10337000FAA3E0F9EF12124790031CE06403705BBC
:1033800090033EE0FFE4FCFDFE7810121587C004B8
:10339000C005C006C007A3E0FFE4FCFDFE781812DC
:1033A0001587D003D002D001D000EF4BFFEE4AFECC
:1033B000ED49FDEC48FCA804A905AA06AB0790035B
:1033C0003DE0FEEA4EFA90033CE0FFEB4FFFEAFEE1
:1033D000E9FDE8FC900319E0FB802C900319E0FB69
:1033E000A3E0FAA3E0F990000A1215BA900345E0B1
:1033F000F8A3E0F9A3E0FAA3E02FFFEA3EFEE93DDF
:10340000FDE83CFC900319A3E0FAA3E0F990000E5C
:10341000121604900319E0FBA3E0FAA3E0F9900070
:103420000A1215BA900345E0F8A3E0F9A3E0FAA365
:10343000E02FFFEA3EFEE93DFDE83CFCC004C0058C
:10344000C006C007900319A3E0FAA3E0F9900004B6
:1034500012136FFFE5F0C4F854F0C868FEEFC454CF
:103460000F48FFE4FCFDD003D002D001D000EB2FC9
:10347000FFEA3EFEED39FDEC38FC900319E0FBA3BA
:10348000E0FAA3E0F9900012121604900001E41291
:1034900012598B7C8A7D897E7F002290031BEFF07E
:1034A000A3E4F0A3F0A3F0A3F0A3F0A304F0E4A33B
:1034B000F090034874DCF074FFA3F0A3F07BB0E459
:1034C000FDFF12BC3C90032674FFF0A37461F0A3CF
:1034D0007419F07BFF7A61790E128A4E7FE87E03C1
:1034E00012C5EE90034874DCF074FFA3F0A3F07BE8
:1034F000B0E4FDFF12BC3C129FF07F0B12BB658F46
:103500000EC374FE950E131313541FF50E7512009F
:103510007513017514017F007E0212B89190031C8F
:10352000EBF0A3EAF0A3E9F04A700C7BFF7A617933
:103530003112C16C7F0F2290031BE07020788A7CCF
:1035400000FD7BFF7A617940121B3A12AE1CEF70CE
:1035500009AF13AE1212AB8E80037F01227BFF7A7C
:1035600061794612C16C7BFF7A61796812C16C7B0C
:10357000FF7A61794612C16C9003217401F012A3A5
:103580002D7B007A00798A1284388F48E5486003E1
:103590000238807BFF7A61797A12C16C7B007A00F5
:1035A000793B12C16C7BFF7A61798912C16C12C0C0
:1035B000CA12A96E12BE9A9003487402F0A3E4F0F6
:1035C000A3741FF07BB07DA9E4FF12BC3CE4900320
:1035D00022F0900320E0600302367D90033CF0A3CC
:1035E0007400F0A37449F090031CE0FBA3E0FAA37D
:1035F000E0F97D007C021240C18F48E490031FF087
:1036000090031FE0FFC394105021EF75F020A4FF3A
:1036100090031CE0FBA3E0FAA3E02FF9EA35F0FAEF
:1036200012BBF690031FE004F080D5900322E00463
:10363000F0E075F00F84E5F0700612C55912000E27
:10364000E5487006E54A454970337BFF7A61798B1E
:1036500012C16C90031BE0600280147F0112AF9ACC
:103660008F48E54860117BFF7A61799712C16C90B1
:1036700003217420F080069003217410F09003263B
:10368000E4F0A37400F0A3741FF07B007A00791EAD
:10369000129493E51EC394FF400302387378B6E694
:1036A000B4012BE51ED394505003023873E51E94E9
:1036B000644003023873E51F94DC5003023873E55D
:1036C0001F94FA400302387312C73402386CE51EA7
:1036D000D394404040E51E946C503AE51F94AE40B0
:1036E00034E51F94DA502E900320E06401F07FC887
:1036F0007E0012C5EE900320E0600B12C28F7BFFAC
:103700007A6179AA800912C2617BFF7A6179B41269
:10371000C16C023873E51ED394104066E51E9430E8
:103720005060E51F94B9405AE51F94D95054900356
:1037300021E06401702E90031BE0600302384CFF0F
:1037400012AF9A8F48E54860127BFF7A6179BD120B
:10375000C16C9003217420F002384C900321741046
:10376000F002384C900321E0B40208E4FF12A8E311
:1037700002384C900321E0B40305E4FF12A6B20224
:10378000384CE51ED394804060E51E94A0505AE565
:103790001F94B94054E51F94D9504E900321E06422
:1037A00001702A90031BE0703E7F0112AF9A8F4890
:1037B000E54860117BFF7A61799712C16C90032113
:1037C0007420F080229003217410F0801A9003215D
:1037D000E0B402077F0112A8E3800C900321E0B45B
:1037E00003057F0112A6B28063E51ED39403401A3D
:1037F000E51E94235014E51F9403400EE51F942307
:1038000050089003217420F08069E51ED3945C4039
:103810003FE51E948C5039E51F94154033E51F9405
:1038200021502D900321E004F0E0B404037401F072
:10383000900321E024FE600C14600E2402700D122F
:10384000BE9A800812B330800312B6627F0A801ECF
:10385000E51ED39450401CE51E94645016E51F9459
:10386000DC4010E51F94FA500A12C81F7FC87E0082
:1038700012C5EE900321E0543070030235D2800966
:103880007BFF7A6179CF12C16C12C597900321E05A
:103890006410700302356F90031CE0FBA3E0FAA3F1
:1038A000E0F912C19F12C53790032674FFF0A3748C
:1038B00061F0A374FAF07BFF7A6179EF128A4E7F90
:1038C000E87E0312C5EE90034874DCF074FFA3F0A9
:1038D000A3F07BB0E4FDFF12BC3C7BFF7A62790E63
:1038E00012C16C7F0022900337121707AB7CAA7DB0
:1038F000A97E90034BEBF0A3EAF0A3E9F04A4B70EA
:10390000037F062290034BE0FBA3E0FAA3E0F990CB
:10391000000112121A20E0037F052290001A1215EE
:10392000BA900337E0F8A3E0F9A3E0FAA3E0FBD3F1
:10393000121563401790034BE0FBA3E0FAA3E0F9F4
:1039400090001A1215BA90033712170790034BE034
:10395000FBA3E0FAA3E0F99000161215BA90034712
:1039600012170790001612175D00000000E4FFFE1A
:10397000FDFC900337E0F8A3E0F9A3E0FAA3E0FB35
:10398000D31215635003023CDC90034BE0FBA3E031
:10399000FAA3E0F990000212121AFF7E007C027D69
:1039A000001218A690033F121707E4FFFEFDFC90DB
:1039B0000347E0F8A3E0F9A3E0FAA3E0FBD3121574
:1039C000635003023ADD900347E0FCA3E0FDA3E06F
:1039D000FEA3E024FFFFEE34FFFEED34FFFDEC34E8
:1039E000FFFC90033FE0F8A3E0F9A3E0FAA3E0FBBB
:1039F0001214B6C004C005C006C007900337E0FC2F
:103A0000A3E0FDA3E0FEA3E024FFFFEE34FFFEED04
:103A100034FFFDEC34FFFC90033FE0F8A3E0F9A392
:103A2000E0FAA3E0FB1214B6A804A905AA06AB07A6
:103A3000D007D006D005D004C31215635003023A54
:103A4000DD90033FE0FCA3E0FDA3E0FEA3E024FF44
:103A5000FFEE34FFFEED34FFFDEC34FFFC121548A1
:103A6000A804A905AA06AB07900347E0FCA3E0FD64
:103A7000A3E0FEA3E024FFFFEE34FFFEED34FFFDE4
:103A8000EC34FFFCEF5BFFEE5AFEED59FDEC58FC09
:103A9000A3E0FBA3E0FAA3E0F9900016121604904D
:103AA0000337E0FCA3E0FDA3E0FEA3E0FF900016D7
:103AB000121661C3EF9BFFEE9AFEED99FDEC98FCA8
:103AC00090033712170790034BE0FBA3E0FAA3E043
:103AD000F99000221215BA90033B023C0190034B6F
:103AE000E0FBA3E0FAA3E0F990001E1215BA9003E0
:103AF0003B12170790033BE0FCA3E0FDA3E0FEA30D
:103B0000E0FF90002212160490033FE0FCA3E0FDCA
:103B1000A3E0FEA3E0FF900337E0F8A3E0F9A3E001
:103B2000FAA3E0FBD31215635003023C0790033B5A
:103B3000E0FCA3E0FDA3E0FEA3E0FF1266519003CA
:103B40003B121707E47F01FEFDFC90033BE0F8A366
:103B5000E0F9A3E0FAA3E0FBD31215635003023CA3
:103B6000DF90034BE0FBA3E0FAA3E0F9900006121C
:103B700015BA90033BE0F8A3E0F9A3E0FAA3E0FB59
:103B8000C31215634003023CDF90033BE0FCA3E05B
:103B9000FDA3E0FEA3E0FF90034BE0FBA3E0FAA34C
:103BA000E0F9900022121604E92416F9E43AFAC06A
:103BB00002C00112159A90033FE0F8A3E0F9A3E0D8
:103BC000FAA3E02FFFEA3EFEE93DFDE83CFCD00110
:103BD000D0021215EA900337E0FCA3E0FDA3E0FE5B
:103BE000A3E0FF90033FE0F8A3E0F9A3E0FAA3E02D
:103BF000FBC3EF9BFFEE9AFEED99FDEC98FC900362
:103C000037121707023B0890034BE0FBA3E0FAA32F
:103C1000E02416F9E43AFAC002C00112159A9003A2
:103C200037E0F8A3E0F9A3E0FAA3E02FFFEA3EFEB5
:103C3000E93DFDE83CFCD001D0021215EA90033BBF
:103C4000E0FCA3E0FDA3E0FEA3E0FF129D229003B1
:103C500043121707900343E0FCA3E0FDA3E0FEA39B
:103C6000E0FFEC4D4E4F607790034BE0FBA3E0FA92
:103C7000A3E0F99000161215BAE4FB7A02F9F812E3
:103C800014B6C004C005C006C00790034BE0FBA3F8
:103C9000E0FAA3E0F990000212121A24FFFFE434C4
:103CA000FFFEE4FCFDD003D002D001D000EB5FFFAB
:103CB000EA5EFE900343E0F8A3E0F9A3E0FAA3E094
:103CC0002FFFEA3EFEED39FDEC38FC90034BE0FBA4
:103CD000A3E0FAA3E0F99000261216047F002290D8
:103CE000034BE0FBA3E0FAA3E0F9900001E4121219
:103CF000597F0122900329EFF0A3EDF0A3EBF07FB1
:103D0000FF7E0012B891900330EBF0A3EAF0A3E934
:103D1000F04A700C7BFF7A62792012C16C7F0F220F
:103D200090033CE4F0A37400F0A37449F0900330D6
:103D3000E0FBA3E0FAA3E0F97DFF7C001240C18F15
:103D400048E548601A7BFF7A62792F12C16C9003B4
:103D500030E0FBA3E0FAA3E0F912C19FAF48229044
:103D60000330E0FBA3E0FAA3E0F990001C12121A62
:103D7000131313541F900333F090000B12121AFE0A
:103D800090000A12121AFDEDFF90032EEEF0A3EF41
:103D9000F090001212121A900335F09000161212D1
:103DA0001A900336F090032BE06041900335E0FF5A
:103DB00074B0C39F4068A3E0FF74DC9F5002805E34
:103DC000900335E0FFC374B09FFFE49400C313EF8A
:103DD00013900329F0900336E0FFC374DC9FFFE4E7
:103DE0009400C313EF1390032AF0804C900335E046
:103DF000FF900329E02FFFE433FED3EF94B0EE648D
:103E00008094805019900336E0FF90032AE02FFF42
:103E1000E433FED3EF94DCEE64809480401A7BFFA1
:103E20007A62793F12C16C900330E0FBA3E0FAA301
:103E3000E0F912C19F7FF022900335E0D394B040A7
:103E4000030240A7A3E094DC40030240A7900330A4
:103E5000E0FBA3E0FAA3E0F912120164426003025E
:103E600040A790000112121A644D60030240A7900F
:103E70000329E0FFC007900335E0FEEF2E14FD900C
:103E8000032AE0FB900336E0FEEB2E1490033AF099
:103E9000D00712B7DC90032EE0FEA3E0FFE4FCFDA8
:103EA0001238E68F48900333E01470030240301458
:103EB0007003023F6E1460030240B090033CE4F0D4
:103EC000A37400F0A37449F0900330E0FBA3E0FA80
:103ED000A3E0F97DFF7C001240C18F48E4900334D9
:103EE000F0900333E0FD7C00AE49AF4A12128DA37F
:103EF000E0C39FE49E5064900330E0FBA3E0FAA38C
:103F0000E0F9900334E0FE75F003A42402F582E4A6
:103F100035F0F58312121AFF900330A3A375F00356
:103F2000EEA42401F582E435F0F58312121AFD9017
:103F30000330A3A3900334E075F003A4F58285F069
:103F40008312121AFB12C2BD90032CEEF0A3EFF005
:103F500012C57E900334E004F08086E548600302D9
:103F600040B0E54A45496003023EBB0240B09003C1
:103F70003CE4F0A37400F0A37449F0900330E0FB3C
:103F8000A3E0FAA3E0F97DFE7C001240C18F48E473
:103F9000900334F0900333E0FD7C00AE49AF4A1249
:103FA000128DA3E0C39FE49E5073900330E0FBA307
:103FB000E0FAA3E0F9900334E0FD75F002A4F58285
:103FC00085F08312121AFF541FFB90032CE4F0A318
:103FD000EBF0EF54E025E0FFE433FEE02FF0900338
:103FE0002CE03EF0900330E0FBA3A375F002EDA4BB
:103FF0002401F582E435F0F58312121A25E0FE90D3
:10400000032DE02400F090032CE03EF0E0FEA3E05E
:10401000FF12C57E900334E004F0023F94E548604F
:10402000030240B0E54A45496003023F6E0240B0DA
:1040300090033CE4F0A37400F0A37449F0900330C3
:10404000E0FBA3E0FAA3E0F97DFF7C001240C18F02
:1040500048E4900334F0900334E0C3954AE4954972
:104060005039900330E0FBA3E0FAA3E0F990033469
:10407000E0FEF58275830012121AFDFF8E827583B1
:104080000012121AFB12C2BD90032CEEF0A3EFF047
:1040900012C57E900334E004F080BBE5487011E562
:1040A0004A4549708B80097BFF7A62794C12C16C5A
:1040B000900330E0FBA3E0FAA3E0F912C19F7F0078
:1040C0002290033AECF0A3EDF0900337EBF0A3EA73
:1040D000F0A3E9F090034EEBF0A3EAF0A3E9F0A31C
:1040E000E57CF0A3E57DF0A3E57EF090033CE0FBEA
:1040F000A3E0FAA3E0F9E4F5F01213DF900351E036
:10410000FBA3E0FAA3E0F9EA494B70037F06229093
:104110000351E0FBA3E0FAA3E0F990000112121AA8
:1041200020E0037F0522900016121661C000C00136
:10413000C002C003900351E0FBA3E0FAA3E0F990B2
:10414000001A1215BAD003D002D001D000C3EF9BE1
:10415000FFEE9AFEED99FDEC98FC900347121707CD
:1041600090033AE0FEA3E0FFE4FCFD900347E0F893
:10417000A3E0F9A3E0FAA3E0FBC31215635011908A
:104180000347A3A3E0FFA3E090033ACFF0A3EFF02F
:1041900090033AE07002A3E070030243FE900351E3
:1041A000E0FBA3E0FAA3E0F99000161215BAEE5472
:1041B00001FEE4FDFCFBFAF9F8C31215636003028B
:1041C00042D7900351E0FBA3E0FAA3E0F990001678
:1041D0001215BAE4FB7A02F9F81214B6C004C0054D
:1041E000C006C007900351E0FBA3E0FAA3E0F990FA
:1041F000000212121A24FFFFE434FFFED003D002A3
:10420000D001D000EB5FFF90034DEFF0707490038E
:1042100051E0FBA3E0FAA3E0F99000161215BAE40E
:10422000FBFAF9F8C31215639003517010E0FBA379
:10423000E0FAA3E0F990001E1215BA80031266435B
:1042400090033F121707E47F01FEFDFC90033FE05F
:10425000F8A3E0F9A3E0FAA3E0FBD312156350033F
:1042600002440190033FE0FCA3E0FDA3E0FEA3E0D5
:10427000FF900351E0FBA3E0FAA3E0F990002212C3
:104280001604900351129D149003431217079003D4
:1042900043E0FCA3E0FDA3E0FEA3E0FFEC4D4E4FA6
:1042A000700302440190034DE0FFE4FCFDFE900327
:1042B00043E0F8A3E0F9A3E0FAA3E02FFFEE3AFE13
:1042C000ED39FDEC38FC900351E0FBA3E0FAA3E0EC
:1042D000F9900026121604900351E0FBA3E0FAA324
:1042E000E0F99000161215BAEE5401FEE4C39FFFE8
:1042F00074029EFE90034BF0A3EFF090033AE0FCB3
:10430000A3E0FDC39FEC9E500890034BECF0A3ED9F
:10431000F0900337E0FBA3E0FAA3E0F9EA494B7021
:1043200005FBFAF9800B90034EE0FBA3E0FAA3E053
:10433000F9C003C002C001900351E0FBA3E0FAA35F
:10434000E0F99000261215BAC004C005C006C007E7
:10435000900351A3A3E09000161215BAEE5401FE8B
:1043600090039BEEF0A3EFF090034BE0FFA3E090EF
:10437000039DCFF0A3EFF0D007D006D005D004D036
:1043800001D002D0031281ACEF7076900351E0FBB4
:10439000A3E0FAA3E02416F9E43AFAC003C002C08D
:1043A0000112164190034BE0FEA3E0FFE4FCFDEB9D
:1043B0002FFFEA3EFEED39FDEC38FCD001D002D0F3
:1043C000031215EA90034BE0FEA3E0FF90034FEECB
:1043D0008FF0121318C390033BE09FF090033AE074
:1043E0009EF090034BE0FEA3E0FF90033CE0FBA3B4
:1043F000E0FAA3E0F9EE8FF01213A70241907F00DC
:1044000022900351E0FBA3E0FAA3E0F9900001E45D
:104410001212597F0122900332EBF0900330EFF03B
:10442000A3EDF090033DE4F0A3EFF0EDFFA3E4F083
:10443000A3EFF0E4A3F0900334E0F9A3E0FAA3E0E3
:10444000900342C9F0A3EAF0A3E9F0900334E0FB43
:10445000A3E0FAA3E0F912120170030246F4D39428
:104460008040069003417401F0900341E060030234
:1044700045F9900332E0FF90033EE02FFF90033DAB
:10448000E03400FE900337E0C313FDC3EF9DFFEE61
:104490009400FE900330E0F9D39FE49E40519003D6
:1044A0003CE06033AF01C007900331E0FD90033D75
:1044B000A3E0FF900332E02FC399FB900337E09015
:1044C0000348F090033AE0FFA3E0900349CFF0A344
:1044D000EFF0D00712BC3C900337E0FF900331E0CF
:1044E0002FF0E02402F090033DA3E0900330F09021
:1044F0000333E0FF900340E02FFF90033FE03400E0
:10450000FE900337E0FDC3EF9DFFEE9400FE9003A5
:1045100031E0D39FE49E40030246F4900334E0FB75
:10452000A3E0FAA3E0F9121201640D706F90033C4E
:10453000E06035900330E0F9FFC007A3E0FD900391
:104540003DA3E0FF900332E02FC399FB900337E0D7
:10455000900348F090033AE0FFA3E0900349CFF0C6
:10456000A3EFF0D00712BC3C900330E0FF90033D76
:10457000E0FCA3E0FD6F7001EC600F900337E0FFFB
:10458000900331E02FF0E02402F0900330EDF09042
:104590000335E475F00212131802444B900331E026
:1045A000FD900334E0FBA3E0FAA3E0F9121201FB53
:1045B000900337E0900348F0900338E0FFA3E090C9
:1045C0000349CFF0A3EFF090033AE0FFA3E090039C
:1045D0004BCFF0A3EFF090033CE090034DF090033D
:1045E00030E0FF1292B9900335E475F00112131810
:1045F000900337E0C3130246EAE4900341F09003CE
:1046000032E0FF7E0090033DE0FAA3E0FB2FFFEED7
:104610003AFE900337E0FDC3EF9DFFEE9400FE905D
:104620000330E0F9D39FE49E404990033CE0602BC7
:10463000AF01C007900331E0FDA3E02BC399FB90CD
:104640000337E0900348F090033AE0FFA3E09003C3
:1046500049CFF0A3EFF0D00712BC3C900337E0FF46
:10466000900331E02FF0E02402F090033DA3E090AE
:104670000330F0900333E0FF900340E02FFF9003FE
:104680003FE03400FE900337E0FDC3EF9DFFEE9462
:1046900000FE900331E0FDD39FE49E505790033419
:1046A000E0FBA3E0FAA3E0F9A3E090034AF0900353
:1046B00038E0FFA3E090034BCFF0A3EFF090033A74
:1046C000E0FFA3E090034DCFF0A3EFF090033CE0B8
:1046D00090034FF0900330E0FF129AB4900335E45A
:1046E00075F002121318900337E0FF900330E02FAB
:1046F000F002444B900342A3E0FAA3E0AE02FF9025
:104700000334A3E0FAA3E0C39FFFEA9EFE22E4780D
:10471000B8F674FFFFFE12C37090032674DCF0A39A
:1047200012172C001533707BB0E4FDFF12683B902C
:1047300003267432F0A312172C0014BE407B327D86
:104740000E7F1412683B7BFF7AC27939900329747B
:104750000CF0A37432F0A3E4F0A3741FF074FFA371
:10476000F0A3F07D447F14129B8B9003267432F0EB
:10477000A312172C0014D1C87B327D0E7F691268FA
:104780003B7BFF7AC27940900329740CF0A374320A
:10479000F0A3E4F0A3741FF074FFA3F0A3F07D4432
:1047A0007F69129B8B9003267432F0A312172C00A2
:1047B00014E5507B327D527F1412683B7BFF7AC236
:1047C0007947900329740CF0A37432F0A3E4F0A3AA
:1047D000741FF074FFA3F0A3F07D887F14129B8BED
:1047E0009003267432F0A312172C0014F8D87B32F1
:1047F0007D527F6912683B7BFF7AC2794D90032915
:10480000740CF0A37432F0A3E4F0A3741FF074FFEF
:10481000A3F0A3F07D887F69129B8B9003267432EE
:10482000F0A312172C00150C607B327D977F1412B9
:10483000683B7BFF7AC27954900329740CF0A3740F
:1048400032F0A3E4F0A3741FF074FFA3F0A3F07D93
:10485000CD7F14129B8B9003267432F0A312172C79
:1048600000151FE87B327D977F6912683B7BFF7ADA
:10487000C2795A900329740CF0A37432F0A3E4F0C7
:10488000A3741FF074FFA3F0A3F07DCD7F69129B8A
:104890008B12BE1612981D1299D9900326E4F0A32C
:1048A0007400F0A3741FF07B007A00791E129493B9
:1048B000E51EC394FF40030249B178B6E6B4012B6C
:1048C000E51ED3945050030249B1E51E94644003A1
:1048D0000249B1E51F94DC50030249B1E51F94FA87
:1048E00040030249B112C7340249B1E51ED3941402
:1048F000401AE51E94465014E51F940A400EE51F29
:10490000943C5008E4FF12349B024712E51ED394F6
:1049100069401AE51E949B5014E51F940A400EE569
:104920001F943C5008E4FF1249D6024712E51ED3FB
:104930009414401AE51E94465014E51F944E400E00
:10494000E51F94805008E4FF126433024712E51E0D
:10495000D39469401EE51E949B5018E51F944E4069
:1049600012E51F9480500C7BFF7AC27960124F21B0
:10497000024712E51ED394144018E51E94465012C7
:10498000E51F9493400CE51F94C55006125416027F
:104990004712E51ED394694018E51E949B5012E51A
:1049A0001F9493400CE51F94C550061223C1024783
:1049B000127F0A7E0012C5EE78B806E6B4640612CD
:1049C000981D1299D9E5B054FE65B0600302489A6B
:1049D00075C76002489A90031BEFF090034874DC9F
:1049E000F074FFA3F0A3F07BB0E4FDFF12BC3C9099
:1049F000032674FFF0A3747BF0A37447F07BFF7A67
:104A00007B7940128A4E7FE87E0312C5EE90034800
:104A100074DCF074FFA3F0A3F07BB0E4FDFF12BCE4
:104A20003C7F887E0112B8919003C3EBF0A3EAF0BB
:104A3000A3E9F04A700C7BFF7A7B795C12C16C7F32
:104A40000F2275120075130190031BE0703E788AE7
:104A50007C00FD7BFF7A7B796B121B3A12AE9CEFD8
:104A60007027AF13AE1212AC1490032674FFF0A39C
:104A7000747BF0A37478F07BFF7A7B7971128A4E95
:104A80007FE87E0312C5EE80037F01227BFF7A7BE5
:104A9000799412C16C7BFF7A7B79B612C16CE49079
:104AA000031CF090034874DCF074FFA3F0A3F07BC8
:104AB000B0E4FDFF12BC3C12A1F17B007A00798AC0
:104AC0001284388F48E5486003024C337BFF7A7BC1
:104AD00079C412C16C7B007A00793B12C16C7BFFF8
:104AE0007A7B79D312C16C12C4F278AE121713001C
:104AF00000000078B21217130000000012857890B1
:104B00000326E4F0A37400F0A3741FF07B007A0086
:104B1000791E129493E51EC394FF4003024C26783D
:104B2000B6E6B4012BE51ED394505003024C26E5A3
:104B30001E94644003024C26E51F94DC5003024C93
:104B400026E51F94FA4003024C2612C734024C2675
:104B5000E51ED394004015E51E943A500FE51F94CE
:104B6000DC4009E51F94FA5003024C18E51ED3946B
:104B7000004015E51E94B0500FE51F94124009E562
:104B80001F94655003024C26E51ED394004028E58F
:104B90001E94B05022E51F9465401CE51F94DC5024
:104BA000161285788F48E5486401607A7BFF7A7B2E
:104BB00079D512C16C806FE51ED39400402AE51EA2
:104BC00094245024E51F9400401EE51F94125018B1
:104BD00090031BE07050FF12BEDCEF60437BFF7A56
:104BE0007B79DD12C16C8030E51ED3948C4037E5B3
:104BF0001E94B05031E51F9400402BE51F941250D5
:104C00002590031BE0701F7F0112BEDCEF60117B5B
:104C1000FF7A7B79EE12C16C90031C7420F0800641
:104C200090031C7410F090031CE054307003024A8F
:104C3000FF80097BFF7A7C790012C16C90031CE035
:104C400064107003024A9E9003C3E0FBA3E0FAA342
:104C5000E0F912C19F12C53790032674FFF0A374C8
:104C60007CF0A37420F07BFF7A7B7971128A4E7FEF
:104C7000E87E0312C5EE90034874DCF074FFA3F0E5
:104C8000A3F07BB0E4FDFF12BC3C7BFF7A7C793162
:104C900012C16C7F0022900319EFF07F007E011299
:104CA000B891900326EBF0A3EAF0A3E9F04A70086C
:104CB0007BFF7A6A79CB8058127C3FEF60012290AB
:104CC0000319E070087BFF7A6B79E3800D9003197C
:104CD000E0B4010B7BFF7A6B79FB1284388F48E5D7
:104CE0004860307BFF7A6A79F912C16C900319E051
:104CF00070087BFF7A6B79E3800D900319E0B401B3
:104D0000097BFF7A6B79FB12C16C7BFF7A6B790AA6
:104D100002C16C7BFF7A6B791EAF68AE67AD66AC83
:104D20006512C4CFE4FB7A10F9F8AF68AE67AD66E0
:104D3000AC651214B690031A121707E568FFE56711
:104D4000540FFEE4FDFCFBFAF9F8C3121563601F73
:104D500090031AE0FCA3E0FDA3E0FEA3E02401FF22
:104D6000E43EFEE43DFDE43CFC90031A1217077B91
:104D7000FF7A6B792990031AE0FCA3E0FDA3E0FE23
:104D8000A3E0FF12C4CF7BFF7A6B793712C16C901E
:104D9000031E12172C0000000090031AE0FCA3E091
:104DA000FDA3E0FEA3E0FFA3E0F8A3E0F9A3E0FA8F
:104DB000A3E0FBC31215634003024E4990031EE0BB
:104DC000FCA3E0FDA3E0FEA3E0FF780C121587A38F
:104DD000121707900319E0FB7017900322E0FCA361
:104DE000E0FDA3E0FEA3E02400FFE43EFEE43D80FE
:104DF0001BEBB40121900322E0FCA3E0FDA3E0FE45
:104E0000A3E02400FFEE3480FEED3414FDE43CFC0E
:104E1000900322121707900322E0FCA3E0FDA3E019
:104E2000FEA3E0FF12B83790031EE0FCA3E0FDA351
:104E3000E0FEA3E02401FFE43EFEE43DFDE43CFC93
:104E400090031E121707024D997BFF7A6B7944126B
:104E5000C16C900319E070157BFF7A6B795112C118
:104E60006C90032212172C00000000801A90031986
:104E7000E0B401137BFF7A6B798012C16C9003223E
:104E800012172C0014800090033CE4F0A37400F08F
:104E9000A37449F0900326E0FBA3E0FAA3E0F97DB8
:104EA000007C011240C18F48E5487006E54A45493B
:104EB000700B7BFF7A6B79AA12C16C80529003222F
:104EC000E0FCA3E0FDA3E0FEA3E0FF900333740148
:104ED000F0A3E4F0900326E0F9A3E0FAA3E0900346
:104EE00035C9F0A3EAF0A3E9F012A290900322E002
:104EF000FCA3E0FDA3E0FEA3E02400FFEE3401FEEE
:104F0000E43DFDE43CFC900322121707024E87901B
:104F10000326E0FBA3E0FAA3E0F912C19F12C7CA7F
:104F200022E47880F608F608F608F608F608F6088F
:104F3000F608F6788A7C00FD121B3A90034874DC70
:104F4000F074FFA3F0A3F07BB0E4FDFF12BC3C9033
:104F5000032674FFF0A37489F0A374ABF07BFF7A8F
:104F60008979A4128A4E7BFF7A8979C412C16C7B3D
:104F7000FF7A8979E612C16C7FE87E0312C5EE9054
:104F8000034874DCF074FFA3F0A3F07BB0E4FDFFF2
:104F900012BC3C129DD1EF60030251527BFF7A8913
:104FA00079FA12C16C7B007A00798812C16C12C741
:104FB000F290034874DCF074FFA3F0A3F07BB0E43C
:104FC000FDFF12BC3C12793512C34412A73F12B147
:104FD0007B125DAC7886E6FF7D01129E8A900326E7
:104FE000E4F0A37400F0A3741FF07B007A00791E34
:104FF000129493E51EC394FF400302514878B6E62D
:10500000B4012BE51ED394505003025148E51E9481
:10501000644003025148E51F94DC5003025148E507
:105020001F94FA400302514812C734025148E51E4A
:10503000D39400404DE51E94A05047E51F942240B4
:1050400041E51F94BB503B7985E7788466701378FF
:1050500087E675F011A42420FFE51FD39F400302CB
:105060004FDD7886E6FFE4FD129E8AE51F24EFFF00
:10507000E434FFFE7C007D1112128D7886EFF6027B
:105080005103E51ED3949C4043E51E94B0503DE58A
:105090001F94214037E51F943550317886E6FFE4B0
:1050A000FD129E8A788516E670027601125DAC7854
:1050B00084E6B4010D18E6FF7881E62F047886F6C1
:1050C0008004788676097886E6FF8037E51ED394DB
:1050D0009C403AE51E94B05034E51F94A7402EE55D
:1050E0001F94BB50287886E6FFE4FD129E8A7885DF
:1050F0000618E6FF08E6D39F4002A607125DAC78CB
:1051000086E6FF7D01129E8A12B17B803BE51ED3AD
:105110009402401BE51E94225015E51F94CB400FCE
:10512000E51F94DB5009128B7CEF601C024F93E566
:105130001ED3948F4012E51E94AF500CE51F94CB04
:105140004006E51F94DB40197F647E0012C5EE0225
:105150004FDD7BFF7A8A7909AF48E4FCFDFE12C47B
:10516000CF7BFF7A8A791A12C16C90032674FFF004
:10517000A3748AF0A37439F07BFF7A8A792E128A9D
:105180004E7FE87E0312C5EE90034874DCF074FF96
:10519000A3F0A3F07BB0E4FDFF02BC3C90031EE053
:1051A000FF04F0900325EFF0FBE4A3F0A312172C0B
:1051B00000000000EBD3940940097BFF7A8979282D
:1051C00002C16C900325E07032FBFAF97D01128771
:1051D000E7900333740DF0A374FFF0A37489F0A378
:1051E000743BF0A3740CF0E4A3F0A3F074FFA3F0FD
:1051F000A3F0E4A3F07B507D258043E53A30E443FF
:105200007B007A007900900325E0FD1287E7900388
:1052100025E075F011A42414FD900333740DF0A360
:10522000E4F0A37400F0A3743BF0A3740CF0E4A3C7
:10523000F0A3F074FFA3F0A3F0E4A3F07B507F167B
:10524000024416900326E0FF04F0743B2FF8E6B406
:105250002EF1900326E0243BF9E4FAFB900325E0CD
:10526000FD1287E7900325E075F011A42414FD904A
:105270000333740DF0A3E4F0A37400F0A3743BF0C7
:10528000A3740CF0E4A3F0A3F074FFA3F0A3F0E484
:10529000A3F07B507F16124416E4FF7E04FDFCABA6
:1052A00035AA34A933A832C3121563502DAF35AED9
:1052B00034AD33AC32900327121707900325E07505
:1052C000F011A42414FD900333740DF0A374FFF0C7
:1052D000A37489F0A3743F0253BBE4FFFE7D10FC6E
:1052E000AB35AA34A933A832C31215635036E4FB98
:1052F0007A04F9F8AF35AE34AD33AC321214B6904F
:105300000327121707900325E075F011A42414FD5C
:10531000900333740DF0A374FFF0A37489F0A374A9
:10532000420253BBE4FFFEFD7C40AB35AA34A933F7
:10533000A832C3121563503EE4FB7A04F9F8AF3586
:10534000AE34AD33AC321214B6E4FB7A04F9F81281
:1053500014B6900327121707900325E075F011A4E7
:105360002414FD900333740DF0A374FFF0A374892B
:10537000F0A374458045E4FB7A04F9F8AF35AE3408
:10538000AD33AC321214B6E4FB7A04F9F81214B659
:10539000E4FB7A04F9F81214B69003271217079069
:1053A0000325E075F011A42414FD900333740DF06F
:1053B000A374FFF0A37489F0A37448F0A3740CF0F5
:1053C000E4A3F0A3F074FFA3F0A3F0E4A3F07B0C3C
:1053D0007F80124416900325E075F011A42414FD7B
:1053E000C005900327E0FCA3E0FDA3E0FEA3E0FFDF
:1053F00090032D1217079003317403F0A3740CF07F
:10540000E4A3F0A3F074FFA3F0A3F0E4A3F0D005AD
:105410007F6E12965B2290031974F8F0A3E4F07487
:10542000FFFFFE12C37090032674FFF0A374B0F068
:10543000A3749DF07BFF7AB07994128A4E7BFF7A39
:10544000B079B412C16C7BFF7AB079D612C16C7F8F
:10545000E87E0312C5EE74FFFFFE12C3709003488E
:105460007410F0A374F8F0A3E4F07B107DCCFF126D
:10547000BC3C9003487410F0A37407F0A374E0F0F0
:105480007B107DCC7F1012BC3C9003487410F0A3BD
:10549000E4F0A3741FF07B107DCC7F2012BC3C9005
:1054A00003487410F0A3747FF0A374FFF07B107DA9
:1054B000CC7F4012BC3C9003487410F0A37407F0FA
:1054C000A374FFF07B107DCC7F3012BC3C9003486E
:1054D0007410F0A37405F0A3741FF07B107DCC7FD3
:1054E0005012BC3C9003487410F0A374FFF0A374F6
:1054F000E0F07B107DCC7F6012BC3C9003487410C0
:10550000F0A374F8F0A3741FF07B107DCC7F7012B1
:10551000BC3C9003487410F0A37473F0A3748EF035
:105520007B107DCC7F8012BC3C9003487410F0E46B
:10553000A3F0A3F07B107DCC7F9012BC3C0255E61B
:10554000900326E4F0A37400F0A3741FF07B007AAC
:1055500000791E129493E51EC394FF50E378B6E6DB
:10556000B4011EE51ED3945040D6E51E946450D07D
:10557000E51F94DC40CAE51F94FA50C412C734807A
:10558000BFE51ED394004036E51E94B05030E51FB1
:105590009400402AE51F94CC5024E51E14FFE51F1B
:1055A00014FD9003487403F0900319E0FBA3E0900E
:1055B0000349CBF0A3EBF07B0312BC3C8082E51ED9
:1055C000D394004062E51E94A0505CE51F94CC404B
:1055D00056E51F94DC5050AD1FAF1E12C728900334
:1055E00019EEF0A3EFF09003487410F0900319E067
:1055F000FFA3E0900349CFF0A3EFF07B107DCC7FB9
:10560000A012BC3C7BFF7AB079E590034A7410F09D
:1056100074FFA3F0A3F0E4A3F0A3F0A3F07DCC7F8C
:10562000A1129AB4025540E51ED394A04015E51E80
:1056300094B0500FE51F94CC4009E51F94DC500353
:10564000025456E51ED394005003025540E51E94C3
:105650003A4003025540E51F94DC5003025540E5F3
:105660001F94FA400302554090032674FFF0A37480
:10567000B0F0A374E8F07BFF7AB07994128A4E7F81
:10568000E87E0312C5EE7BFF7AB079FB02C16C4362
:1056900092A043B40112C84E12C8387F0A7E00128D
:1056A000C5EEE4900358F0A3F07FFF12C77B900390
:1056B00059E004F07006900358E004F0C3900359D9
:1056C000E0940A900358E0940040DE900352E4F026
:1056D000A37414F09003A612172C0000000090038E
:1056E000AA7495F0E4FF12A156900351EFF0640103
:1056F000600CA374FFF5F012132E45F070D6E4F59C
:105700007F900351E0640160030258EB9003A612FE
:10571000172C000001AA9003AA7487F07F0812A139
:1057200056EF64016003025826900358F0A3F07FFF
:10573000FF12C77B900358A3E02454F582E434039E
:10574000F583EFF0900359E004F07006900358E001
:1057500004F0C3900359E09404900358E09400408F
:10576000CE900356E0640160030258EBA3E064AA04
:1057700060030258EB90035274FFF0A314F09003FF
:10578000A612172C0000000012A14E9003A61217BB
:105790002C400000009003AA7401F07F2912A1564A
:1057A000900351EFF0600CA374FFF5F012132E4537
:1057B000F070CB900352E07002A3E070030258EB4C
:1057C0009003A612172C000000009003AA7401F0A9
:1057D0007F3A12A156EF60030258EB900358F0A3F2
:1057E000F07FFF12C77B900358A3E02454F582E4B6
:1057F0003403F583EFF0900359E004F07006900352
:1058000058E004F0C3900359E09404900358E094E6
:105810000040CE900354E030E606757F060258EB58
:10582000757F040258EB9003A612172C00000000AD
:1058300012A14E9003A612172C000000009003AA9C
:105840007401F07F2912A156900351EFF0D3940117
:105850005041757F02A374FFF0A314F09003A612C9
:10586000172C0000000012A14E9003A612172C0066
:105870000000009003AA7401F07F2912A156900342
:1058800051EFF06041A374FFF5F012132E45F07054
:10589000CB8033757F0190035274FFF0A314F09016
:1058A00003A612172C000000009003AA7401F0FF59
:1058B00012A156900351EFF0600CA374FFF5F012A3
:1058C000132E45F070D9900352E07002A3E06018E7
:1058D0009003A612172C000002009003AA7401F096
:1058E0007F1012A156EF6003E4F57F12C81812C8AA
:1058F0003DE57F60037F0022900351E0FF600122BD
:105900007FAA22900358EBF0A3EAF0A3E9F09003FA
:105910005EE0FBA3E0FAA3E02409F9E43AFA90037D
:1059200062EBF0A3EAF0A3E9F0900358E0FBA3E0F8
:10593000FAA3E0F990000D1215BAEC4D4E4F70032A
:10594000025B4AE4FF90035BE0FBA3E0FAA3E0F90B
:105950008F8275830012121A900361F06420602612
:10596000900361E0B4050374E5F0900361E0FEA3E9
:10597000E0FBA3E475F00112132EA9F0FAEE121267
:10598000470FEFB408BF90035BE0FBA3E0FAA3E08E
:10599000F990000812121A6420604E900362E0FB36
:1059A000A3E475F00112132EA9F0FA742E12124717
:1059B0007F0890035BE0FBA3E0FAA3E0F98F827518
:1059C000830012121A900361F06420601C9003613E
:1059D000E0FEA3E0FBA3E475F00112132EA9F0FA98
:1059E000EE1212470FEFB40BC990035BE0FBA3E08C
:1059F000FAA3E0F990000B12121AFF90035EE0FB8D
:105A0000A3E0FAA3E0F9900008EF12125990035BAB
:105A1000E0FBA3E0FAA3E0241CF9E43AFA900002C8
:105A200012121AFFE4FCFDFE7810121587C004C0A4
:105A300005C006C00790035BA3E0FAA3E0241CF9AD
:105A4000E43AFA90000312121AFFE4FCFDFE781803
:105A5000121587D003D002D001D000EF4BFFEE4AE1
:105A6000FEED49FDEC48FCC004C005C006C007902F
:105A7000035BE0FBA3E0FAA3E0241CF9E43AFA900C
:105A8000000112121AFED003D002D001D000EBFFA9
:105A9000EA4EFEE9FDE8FCC004C005C006C0079060
:105AA000035BE0FBA3E0FAA3E0F990001C12121ADA
:105AB000FFD003D002D001D000EB4FFFEAFEE9FD9A
:105AC000E8FC90035EE0FBA3E0FAA3E0F91215EA1C
:105AD00090035BE0FBA3E0FAA3E02418F9E43AFAB0
